{
  "_format": "hh-sol-artifact-1",
  "contractName": "ExternalMarketplace",
  "sourceName": "contracts/ExternalMarketplace.sol",
  "abi": [
    {
      "inputs": [
        {
          "internalType": "uint256",
          "name": "_tokenId",
          "type": "uint256"
        }
      ],
      "name": "available",
      "outputs": [
        {
          "internalType": "bool",
          "name": "",
          "type": "bool"
        }
      ],
      "stateMutability": "view",
      "type": "function"
    },
    {
      "inputs": [],
      "name": "getPrice",
      "outputs": [
        {
          "internalType": "uint256",
          "name": "",
          "type": "uint256"
        }
      ],
      "stateMutability": "view",
      "type": "function"
    },
    {
      "inputs": [
        {
          "internalType": "uint256",
          "name": "_tokenId",
          "type": "uint256"
        }
      ],
      "name": "purchase",
      "outputs": [],
      "stateMutability": "payable",
      "type": "function"
    }
  ],
  "bytecode": "0x60806040526509184e72a00060015534801561001a57600080fd5b5061045b8061002a6000396000f3fe6080604052600436106100345760003560e01c806396e494e81461003957806398d5fdca14610076578063efef39a1146100a1575b600080fd5b34801561004557600080fd5b50610060600480360381019061005b9190610292565b6100bd565b60405161006d919061031f565b60405180910390f35b34801561008257600080fd5b5061008b610138565b604051610098919061037a565b60405180910390f35b6100bb60048036038101906100b69190610292565b610142565b005b60008073ffffffffffffffffffffffffffffffffffffffff1660008084815260200190815260200160002060009054906101000a900473ffffffffffffffffffffffffffffffffffffffff1673ffffffffffffffffffffffffffffffffffffffff16141561012e5760019050610133565b600090505b919050565b6000600154905090565b80600073ffffffffffffffffffffffffffffffffffffffff1660008083815260200190815260200160002060009054906101000a900473ffffffffffffffffffffffffffffffffffffffff1673ffffffffffffffffffffffffffffffffffffffff16146101e4576040517f08c379a00000000000000000000000000000000000000000000000000000000081526004016101db9061035a565b60405180910390fd5b6001543414610228576040517f08c379a000000000000000000000000000000000000000000000000000000000815260040161021f9061033a565b60405180910390fd5b3360008084815260200190815260200160002060006101000a81548173ffffffffffffffffffffffffffffffffffffffff021916908373ffffffffffffffffffffffffffffffffffffffff1602179055505050565b60008135905061028c8161040e565b92915050565b6000602082840312156102a457600080fd5b60006102b28482850161027d565b91505092915050565b6102c4816103a6565b82525050565b60006102d7601383610395565b91506102e2826103bc565b602082019050919050565b60006102fa601383610395565b9150610305826103e5565b602082019050919050565b610319816103b2565b82525050565b600060208201905061033460008301846102bb565b92915050565b60006020820190508181036000830152610353816102ca565b9050919050565b60006020820190508181036000830152610373816102ed565b9050919050565b600060208201905061038f6000830184610310565b92915050565b600082825260208201905092915050565b60008115159050919050565b6000819050919050565b7f456e74657220636f72726563742076616c756500000000000000000000000000600082015250565b7f546f6b656e206e6f7420617661696c61626c6500000000000000000000000000600082015250565b610417816103b2565b811461042257600080fd5b5056fea26469706673582212206762c93fd389d6501cc31b758bb38d5deee9a95a75f51b664a2b90f5ee317b1e64736f6c63430008010033",
  "linkReferences": {},
  "deployedLinkReferences": {}
}