{
  "_format": "hh-sol-artifact-1",
  "contractName": "NftContract",
  "sourceName": "contracts/NftContract.sol",
  "abi": [
    {
      "inputs": [],
      "stateMutability": "nonpayable",
      "type": "constructor"
    },
    {
      "anonymous": false,
      "inputs": [
        {
          "indexed": true,
          "internalType": "address",
          "name": "owner",
          "type": "address"
        },
        {
          "indexed": true,
          "internalType": "address",
          "name": "approved",
          "type": "address"
        },
        {
          "indexed": true,
          "internalType": "uint256",
          "name": "tokenId",
          "type": "uint256"
        }
      ],
      "name": "Approval",
      "type": "event"
    },
    {
      "anonymous": false,
      "inputs": [
        {
          "indexed": true,
          "internalType": "address",
          "name": "owner",
          "type": "address"
        },
        {
          "indexed": true,
          "internalType": "address",
          "name": "operator",
          "type": "address"
        },
        {
          "indexed": false,
          "internalType": "bool",
          "name": "approved",
          "type": "bool"
        }
      ],
      "name": "ApprovalForAll",
      "type": "event"
    },
    {
      "anonymous": false,
      "inputs": [
        {
          "indexed": true,
          "internalType": "address",
          "name": "previousOwner",
          "type": "address"
        },
        {
          "indexed": true,
          "internalType": "address",
          "name": "newOwner",
          "type": "address"
        }
      ],
      "name": "OwnershipTransferred",
      "type": "event"
    },
    {
      "anonymous": false,
      "inputs": [
        {
          "indexed": true,
          "internalType": "address",
          "name": "from",
          "type": "address"
        },
        {
          "indexed": true,
          "internalType": "address",
          "name": "to",
          "type": "address"
        },
        {
          "indexed": true,
          "internalType": "uint256",
          "name": "tokenId",
          "type": "uint256"
        }
      ],
      "name": "Transfer",
      "type": "event"
    },
    {
      "inputs": [
        {
          "internalType": "address",
          "name": "to",
          "type": "address"
        },
        {
          "internalType": "uint256",
          "name": "tokenId",
          "type": "uint256"
        }
      ],
      "name": "approve",
      "outputs": [],
      "stateMutability": "nonpayable",
      "type": "function"
    },
    {
      "inputs": [
        {
          "internalType": "address",
          "name": "owner",
          "type": "address"
        }
      ],
      "name": "balanceOf",
      "outputs": [
        {
          "internalType": "uint256",
          "name": "",
          "type": "uint256"
        }
      ],
      "stateMutability": "view",
      "type": "function"
    },
    {
      "inputs": [
        {
          "internalType": "uint256",
          "name": "tokenId",
          "type": "uint256"
        }
      ],
      "name": "getApproved",
      "outputs": [
        {
          "internalType": "address",
          "name": "",
          "type": "address"
        }
      ],
      "stateMutability": "view",
      "type": "function"
    },
    {
      "inputs": [
        {
          "internalType": "address",
          "name": "owner",
          "type": "address"
        },
        {
          "internalType": "address",
          "name": "operator",
          "type": "address"
        }
      ],
      "name": "isApprovedForAll",
      "outputs": [
        {
          "internalType": "bool",
          "name": "",
          "type": "bool"
        }
      ],
      "stateMutability": "view",
      "type": "function"
    },
    {
      "inputs": [
        {
          "internalType": "string",
          "name": "metadata",
          "type": "string"
        }
      ],
      "name": "mint",
      "outputs": [],
      "stateMutability": "nonpayable",
      "type": "function"
    },
    {
      "inputs": [],
      "name": "name",
      "outputs": [
        {
          "internalType": "string",
          "name": "",
          "type": "string"
        }
      ],
      "stateMutability": "view",
      "type": "function"
    },
    {
      "inputs": [],
      "name": "owner",
      "outputs": [
        {
          "internalType": "address",
          "name": "",
          "type": "address"
        }
      ],
      "stateMutability": "view",
      "type": "function"
    },
    {
      "inputs": [
        {
          "internalType": "uint256",
          "name": "tokenId",
          "type": "uint256"
        }
      ],
      "name": "ownerOf",
      "outputs": [
        {
          "internalType": "address",
          "name": "",
          "type": "address"
        }
      ],
      "stateMutability": "view",
      "type": "function"
    },
    {
      "inputs": [],
      "name": "renounceOwnership",
      "outputs": [],
      "stateMutability": "nonpayable",
      "type": "function"
    },
    {
      "inputs": [
        {
          "internalType": "address",
          "name": "from",
          "type": "address"
        },
        {
          "internalType": "address",
          "name": "to",
          "type": "address"
        },
        {
          "internalType": "uint256",
          "name": "tokenId",
          "type": "uint256"
        }
      ],
      "name": "safeTransferFrom",
      "outputs": [],
      "stateMutability": "nonpayable",
      "type": "function"
    },
    {
      "inputs": [
        {
          "internalType": "address",
          "name": "from",
          "type": "address"
        },
        {
          "internalType": "address",
          "name": "to",
          "type": "address"
        },
        {
          "internalType": "uint256",
          "name": "tokenId",
          "type": "uint256"
        },
        {
          "internalType": "bytes",
          "name": "data",
          "type": "bytes"
        }
      ],
      "name": "safeTransferFrom",
      "outputs": [],
      "stateMutability": "nonpayable",
      "type": "function"
    },
    {
      "inputs": [
        {
          "internalType": "address",
          "name": "operator",
          "type": "address"
        },
        {
          "internalType": "bool",
          "name": "approved",
          "type": "bool"
        }
      ],
      "name": "setApprovalForAll",
      "outputs": [],
      "stateMutability": "nonpayable",
      "type": "function"
    },
    {
      "inputs": [
        {
          "internalType": "bytes4",
          "name": "interfaceId",
          "type": "bytes4"
        }
      ],
      "name": "supportsInterface",
      "outputs": [
        {
          "internalType": "bool",
          "name": "",
          "type": "bool"
        }
      ],
      "stateMutability": "view",
      "type": "function"
    },
    {
      "inputs": [],
      "name": "symbol",
      "outputs": [
        {
          "internalType": "string",
          "name": "",
          "type": "string"
        }
      ],
      "stateMutability": "view",
      "type": "function"
    },
    {
      "inputs": [
        {
          "internalType": "uint256",
          "name": "index",
          "type": "uint256"
        }
      ],
      "name": "tokenByIndex",
      "outputs": [
        {
          "internalType": "uint256",
          "name": "",
          "type": "uint256"
        }
      ],
      "stateMutability": "view",
      "type": "function"
    },
    {
      "inputs": [
        {
          "internalType": "address",
          "name": "owner",
          "type": "address"
        },
        {
          "internalType": "uint256",
          "name": "index",
          "type": "uint256"
        }
      ],
      "name": "tokenOfOwnerByIndex",
      "outputs": [
        {
          "internalType": "uint256",
          "name": "",
          "type": "uint256"
        }
      ],
      "stateMutability": "view",
      "type": "function"
    },
    {
      "inputs": [
        {
          "internalType": "uint256",
          "name": "tokenId",
          "type": "uint256"
        }
      ],
      "name": "tokenURI",
      "outputs": [
        {
          "internalType": "string",
          "name": "",
          "type": "string"
        }
      ],
      "stateMutability": "view",
      "type": "function"
    },
    {
      "inputs": [],
      "name": "totalSupply",
      "outputs": [
        {
          "internalType": "uint256",
          "name": "",
          "type": "uint256"
        }
      ],
      "stateMutability": "view",
      "type": "function"
    },
    {
      "inputs": [
        {
          "internalType": "address",
          "name": "from",
          "type": "address"
        },
        {
          "internalType": "address",
          "name": "to",
          "type": "address"
        },
        {
          "internalType": "uint256",
          "name": "tokenId",
          "type": "uint256"
        }
      ],
      "name": "transferFrom",
      "outputs": [],
      "stateMutability": "nonpayable",
      "type": "function"
    },
    {
      "inputs": [
        {
          "internalType": "address",
          "name": "newOwner",
          "type": "address"
        }
      ],
      "name": "transferOwnership",
      "outputs": [],
      "stateMutability": "nonpayable",
      "type": "function"
    }
  ],
  "bytecode": "0x60806040523480156200001157600080fd5b506040518060400160405280601181526020017f59657420416e6f7468657220546f6b656e0000000000000000000000000000008152506040518060400160405280600381526020017f5941540000000000000000000000000000000000000000000000000000000000815250816000908051906020019062000096929190620001a6565b508060019080519060200190620000af929190620001a6565b505050620000d2620000c6620000d860201b60201c565b620000e060201b60201c565b620002bb565b600033905090565b6000600a60009054906101000a900473ffffffffffffffffffffffffffffffffffffffff16905081600a60006101000a81548173ffffffffffffffffffffffffffffffffffffffff021916908373ffffffffffffffffffffffffffffffffffffffff1602179055508173ffffffffffffffffffffffffffffffffffffffff168173ffffffffffffffffffffffffffffffffffffffff167f8be0079c531659141344cd1fd0a4f28419497f9722a3daafe3b4186f6b6457e060405160405180910390a35050565b828054620001b49062000256565b90600052602060002090601f016020900481019282620001d8576000855562000224565b82601f10620001f357805160ff191683800117855562000224565b8280016001018555821562000224579182015b828111156200022357825182559160200191906001019062000206565b5b50905062000233919062000237565b5090565b5b808211156200025257600081600090555060010162000238565b5090565b600060028204905060018216806200026f57607f821691505b602082108114156200028657620002856200028c565b5b50919050565b7f4e487b7100000000000000000000000000000000000000000000000000000000600052602260045260246000fd5b61347980620002cb6000396000f3fe608060405234801561001057600080fd5b506004361061012c5760003560e01c806370a08231116100ad578063b88d4fde11610071578063b88d4fde14610343578063c87b56dd1461035f578063d85d3d271461038f578063e985e9c5146103ab578063f2fde38b146103db5761012c565b806370a08231146102b1578063715018a6146102e15780638da5cb5b146102eb57806395d89b4114610309578063a22cb465146103275761012c565b806323b872dd116100f457806323b872dd146101e95780632f745c591461020557806342842e0e146102355780634f6ccce7146102515780636352211e146102815761012c565b806301ffc9a71461013157806306fdde0314610161578063081812fc1461017f578063095ea7b3146101af57806318160ddd146101cb575b600080fd5b61014b60048036038101906101469190612661565b6103f7565b6040516101589190612aa8565b60405180910390f35b610169610471565b6040516101769190612ac3565b60405180910390f35b610199600480360381019061019491906126f4565b610503565b6040516101a69190612a41565b60405180910390f35b6101c960048036038101906101c49190612625565b610549565b005b6101d3610661565b6040516101e09190612ce5565b60405180910390f35b61020360048036038101906101fe919061251f565b61066e565b005b61021f600480360381019061021a9190612625565b6106ce565b60405161022c9190612ce5565b60405180910390f35b61024f600480360381019061024a919061251f565b610773565b005b61026b600480360381019061026691906126f4565b610793565b6040516102789190612ce5565b60405180910390f35b61029b600480360381019061029691906126f4565b61082a565b6040516102a89190612a41565b60405180910390f35b6102cb60048036038101906102c691906124ba565b6108b1565b6040516102d89190612ce5565b60405180910390f35b6102e9610969565b005b6102f361097d565b6040516103009190612a41565b60405180910390f35b6103116109a7565b60405161031e9190612ac3565b60405180910390f35b610341600480360381019061033c91906125e9565b610a39565b005b61035d6004803603810190610358919061256e565b610a4f565b005b610379600480360381019061037491906126f4565b610ab1565b6040516103869190612ac3565b60405180910390f35b6103a960048036038101906103a491906126b3565b610b19565b005b6103c560048036038101906103c091906124e3565b610bad565b6040516103d29190612aa8565b60405180910390f35b6103f560048036038101906103f091906124ba565b610c41565b005b60007f780e9d63000000000000000000000000000000000000000000000000000000007bffffffffffffffffffffffffffffffffffffffffffffffffffffffff1916827bffffffffffffffffffffffffffffffffffffffffffffffffffffffff1916148061046a575061046982610cc5565b5b9050919050565b60606000805461048090612eb4565b80601f01602080910402602001604051908101604052809291908181526020018280546104ac90612eb4565b80156104f95780601f106104ce576101008083540402835291602001916104f9565b820191906000526020600020905b8154815290600101906020018083116104dc57829003601f168201915b5050505050905090565b600061050e82610da7565b6004600083815260200190815260200160002060009054906101000a900473ffffffffffffffffffffffffffffffffffffffff169050919050565b60006105548261082a565b90508073ffffffffffffffffffffffffffffffffffffffff168373ffffffffffffffffffffffffffffffffffffffff1614156105c5576040517f08c379a00000000000000000000000000000000000000000000000000000000081526004016105bc90612c65565b60405180910390fd5b8073ffffffffffffffffffffffffffffffffffffffff166105e4610df2565b73ffffffffffffffffffffffffffffffffffffffff16148061061357506106128161060d610df2565b610bad565b5b610652576040517f08c379a000000000000000000000000000000000000000000000000000000000815260040161064990612c85565b60405180910390fd5b61065c8383610dfa565b505050565b6000600880549050905090565b61067f610679610df2565b82610eb3565b6106be576040517f08c379a00000000000000000000000000000000000000000000000000000000081526004016106b590612ae5565b60405180910390fd5b6106c9838383610f48565b505050565b60006106d9836108b1565b821061071a576040517f08c379a000000000000000000000000000000000000000000000000000000000815260040161071190612b05565b60405180910390fd5b600660008473ffffffffffffffffffffffffffffffffffffffff1673ffffffffffffffffffffffffffffffffffffffff168152602001908152602001600020600083815260200190815260200160002054905092915050565b61078e83838360405180602001604052806000815250610a4f565b505050565b600061079d610661565b82106107de576040517f08c379a00000000000000000000000000000000000000000000000000000000081526004016107d590612ca5565b60405180910390fd5b60088281548110610818577f4e487b7100000000000000000000000000000000000000000000000000000000600052603260045260246000fd5b90600052602060002001549050919050565b60008061083683611242565b9050600073ffffffffffffffffffffffffffffffffffffffff168173ffffffffffffffffffffffffffffffffffffffff1614156108a8576040517f08c379a000000000000000000000000000000000000000000000000000000000815260040161089f90612c45565b60405180910390fd5b80915050919050565b60008073ffffffffffffffffffffffffffffffffffffffff168273ffffffffffffffffffffffffffffffffffffffff161415610922576040517f08c379a000000000000000000000000000000000000000000000000000000000815260040161091990612be5565b60405180910390fd5b600360008373ffffffffffffffffffffffffffffffffffffffff1673ffffffffffffffffffffffffffffffffffffffff168152602001908152602001600020549050919050565b61097161127f565b61097b60006112fd565b565b6000600a60009054906101000a900473ffffffffffffffffffffffffffffffffffffffff16905090565b6060600180546109b690612eb4565b80601f01602080910402602001604051908101604052809291908181526020018280546109e290612eb4565b8015610a2f5780601f10610a0457610100808354040283529160200191610a2f565b820191906000526020600020905b815481529060010190602001808311610a1257829003601f168201915b5050505050905090565b610a4b610a44610df2565b83836113c3565b5050565b610a60610a5a610df2565b83610eb3565b610a9f576040517f08c379a0000000000000000000000000000000000000000000000000000000008152600401610a9690612ae5565b60405180910390fd5b610aab84848484611530565b50505050565b6060610abc82610da7565b6000610ac661158c565b90506000815111610ae65760405180602001604052806000815250610b11565b80610af0846115a3565b604051602001610b01929190612a1d565b6040516020818303038152906040525b915050919050565b610b2161127f565b6040518060600160405280610b34610661565b815260200167016345785d8a0000815260200182815250600b6000610b57610661565b815260200190815260200160002060008201518160000155602082015181600101556040820151816002019080519060200190610b959291906122de565b50905050610baa33610ba5610661565b6116c7565b50565b6000600560008473ffffffffffffffffffffffffffffffffffffffff1673ffffffffffffffffffffffffffffffffffffffff16815260200190815260200160002060008373ffffffffffffffffffffffffffffffffffffffff1673ffffffffffffffffffffffffffffffffffffffff16815260200190815260200160002060009054906101000a900460ff16905092915050565b610c4961127f565b600073ffffffffffffffffffffffffffffffffffffffff168173ffffffffffffffffffffffffffffffffffffffff161415610cb9576040517f08c379a0000000000000000000000000000000000000000000000000000000008152600401610cb090612b45565b60405180910390fd5b610cc2816112fd565b50565b60007f80ac58cd000000000000000000000000000000000000000000000000000000007bffffffffffffffffffffffffffffffffffffffffffffffffffffffff1916827bffffffffffffffffffffffffffffffffffffffffffffffffffffffff19161480610d9057507f5b5e139f000000000000000000000000000000000000000000000000000000007bffffffffffffffffffffffffffffffffffffffffffffffffffffffff1916827bffffffffffffffffffffffffffffffffffffffffffffffffffffffff1916145b80610da05750610d9f826116e5565b5b9050919050565b610db08161174f565b610def576040517f08c379a0000000000000000000000000000000000000000000000000000000008152600401610de690612c45565b60405180910390fd5b50565b600033905090565b816004600083815260200190815260200160002060006101000a81548173ffffffffffffffffffffffffffffffffffffffff021916908373ffffffffffffffffffffffffffffffffffffffff160217905550808273ffffffffffffffffffffffffffffffffffffffff16610e6d8361082a565b73ffffffffffffffffffffffffffffffffffffffff167f8c5be1e5ebec7d5bd14f71427d1e84f3dd0314c0f7b2291e5b200ac8c7c3b92560405160405180910390a45050565b600080610ebf8361082a565b90508073ffffffffffffffffffffffffffffffffffffffff168473ffffffffffffffffffffffffffffffffffffffff161480610f015750610f008185610bad565b5b80610f3f57508373ffffffffffffffffffffffffffffffffffffffff16610f2784610503565b73ffffffffffffffffffffffffffffffffffffffff16145b91505092915050565b8273ffffffffffffffffffffffffffffffffffffffff16610f688261082a565b73ffffffffffffffffffffffffffffffffffffffff1614610fbe576040517f08c379a0000000000000000000000000000000000000000000000000000000008152600401610fb590612b65565b60405180910390fd5b600073ffffffffffffffffffffffffffffffffffffffff168273ffffffffffffffffffffffffffffffffffffffff16141561102e576040517f08c379a000000000000000000000000000000000000000000000000000000000815260040161102590612ba5565b60405180910390fd5b61103b8383836001611790565b8273ffffffffffffffffffffffffffffffffffffffff1661105b8261082a565b73ffffffffffffffffffffffffffffffffffffffff16146110b1576040517f08c379a00000000000000000000000000000000000000000000000000000000081526004016110a890612b65565b60405180910390fd5b6004600082815260200190815260200160002060006101000a81549073ffffffffffffffffffffffffffffffffffffffff02191690556001600360008573ffffffffffffffffffffffffffffffffffffffff1673ffffffffffffffffffffffffffffffffffffffff168152602001908152602001600020600082825403925050819055506001600360008473ffffffffffffffffffffffffffffffffffffffff1673ffffffffffffffffffffffffffffffffffffffff16815260200190815260200160002060008282540192505081905550816002600083815260200190815260200160002060006101000a81548173ffffffffffffffffffffffffffffffffffffffff021916908373ffffffffffffffffffffffffffffffffffffffff160217905550808273ffffffffffffffffffffffffffffffffffffffff168473ffffffffffffffffffffffffffffffffffffffff167fddf252ad1be2c89b69c2b068fc378daa952ba7f163c4a11628f55a4df523b3ef60405160405180910390a461123d83838360016118f0565b505050565b60006002600083815260200190815260200160002060009054906101000a900473ffffffffffffffffffffffffffffffffffffffff169050919050565b611287610df2565b73ffffffffffffffffffffffffffffffffffffffff166112a561097d565b73ffffffffffffffffffffffffffffffffffffffff16146112fb576040517f08c379a00000000000000000000000000000000000000000000000000000000081526004016112f290612c25565b60405180910390fd5b565b6000600a60009054906101000a900473ffffffffffffffffffffffffffffffffffffffff16905081600a60006101000a81548173ffffffffffffffffffffffffffffffffffffffff021916908373ffffffffffffffffffffffffffffffffffffffff1602179055508173ffffffffffffffffffffffffffffffffffffffff168173ffffffffffffffffffffffffffffffffffffffff167f8be0079c531659141344cd1fd0a4f28419497f9722a3daafe3b4186f6b6457e060405160405180910390a35050565b8173ffffffffffffffffffffffffffffffffffffffff168373ffffffffffffffffffffffffffffffffffffffff161415611432576040517f08c379a000000000000000000000000000000000000000000000000000000000815260040161142990612bc5565b60405180910390fd5b80600560008573ffffffffffffffffffffffffffffffffffffffff1673ffffffffffffffffffffffffffffffffffffffff16815260200190815260200160002060008473ffffffffffffffffffffffffffffffffffffffff1673ffffffffffffffffffffffffffffffffffffffff16815260200190815260200160002060006101000a81548160ff0219169083151502179055508173ffffffffffffffffffffffffffffffffffffffff168373ffffffffffffffffffffffffffffffffffffffff167f17307eab39ab6107e8899845ad3d59bd9653f200f220920489ca2b5937696c31836040516115239190612aa8565b60405180910390a3505050565b61153b848484610f48565b611547848484846118f6565b611586576040517f08c379a000000000000000000000000000000000000000000000000000000000815260040161157d90612b25565b60405180910390fd5b50505050565b606060405180602001604052806000815250905090565b6060600060016115b284611a8d565b01905060008167ffffffffffffffff8111156115f7577f4e487b7100000000000000000000000000000000000000000000000000000000600052604160045260246000fd5b6040519080825280601f01601f1916602001820160405280156116295781602001600182028036833780820191505090505b509050600082602001820190505b6001156116bc578080600190039150507f3031323334353637383961626364656600000000000000000000000000000000600a86061a8153600a85816116a6577f4e487b7100000000000000000000000000000000000000000000000000000000600052601260045260246000fd5b04945060008514156116b7576116bc565b611637565b819350505050919050565b6116e1828260405180602001604052806000815250611cc4565b5050565b60007f01ffc9a7000000000000000000000000000000000000000000000000000000007bffffffffffffffffffffffffffffffffffffffffffffffffffffffff1916827bffffffffffffffffffffffffffffffffffffffffffffffffffffffff1916149050919050565b60008073ffffffffffffffffffffffffffffffffffffffff1661177183611242565b73ffffffffffffffffffffffffffffffffffffffff1614159050919050565b61179c84848484611d1f565b60018111156117e0576040517f08c379a00000000000000000000000000000000000000000000000000000000081526004016117d790612cc5565b60405180910390fd5b6000829050600073ffffffffffffffffffffffffffffffffffffffff168573ffffffffffffffffffffffffffffffffffffffff1614156118285761182381611d25565b611867565b8373ffffffffffffffffffffffffffffffffffffffff168573ffffffffffffffffffffffffffffffffffffffff1614611866576118658582611d6e565b5b5b600073ffffffffffffffffffffffffffffffffffffffff168473ffffffffffffffffffffffffffffffffffffffff1614156118aa576118a581611edb565b6118e9565b8473ffffffffffffffffffffffffffffffffffffffff168473ffffffffffffffffffffffffffffffffffffffff16146118e8576118e7848261201e565b5b5b5050505050565b50505050565b60006119178473ffffffffffffffffffffffffffffffffffffffff1661209d565b15611a80578373ffffffffffffffffffffffffffffffffffffffff1663150b7a02611940610df2565b8786866040518563ffffffff1660e01b81526004016119629493929190612a5c565b602060405180830381600087803b15801561197c57600080fd5b505af19250505080156119ad57506040513d601f19601f820116820180604052508101906119aa919061268a565b60015b611a30573d80600081146119dd576040519150601f19603f3d011682016040523d82523d6000602084013e6119e2565b606091505b50600081511415611a28576040517f08c379a0000000000000000000000000000000000000000000000000000000008152600401611a1f90612b25565b60405180910390fd5b805181602001fd5b63150b7a0260e01b7bffffffffffffffffffffffffffffffffffffffffffffffffffffffff1916817bffffffffffffffffffffffffffffffffffffffffffffffffffffffff191614915050611a85565b600190505b949350505050565b600080600090507a184f03e93ff9f4daa797ed6e38ed64bf6a1f0100000000000000008310611b11577a184f03e93ff9f4daa797ed6e38ed64bf6a1f0100000000000000008381611b07577f4e487b7100000000000000000000000000000000000000000000000000000000600052601260045260246000fd5b0492506040810190505b6d04ee2d6d415b85acef81000000008310611b74576d04ee2d6d415b85acef81000000008381611b6a577f4e487b7100000000000000000000000000000000000000000000000000000000600052601260045260246000fd5b0492506020810190505b662386f26fc100008310611bc957662386f26fc100008381611bbf577f4e487b7100000000000000000000000000000000000000000000000000000000600052601260045260246000fd5b0492506010810190505b6305f5e1008310611c18576305f5e1008381611c0e577f4e487b7100000000000000000000000000000000000000000000000000000000600052601260045260246000fd5b0492506008810190505b6127108310611c63576127108381611c59577f4e487b7100000000000000000000000000000000000000000000000000000000600052601260045260246000fd5b0492506004810190505b60648310611cac5760648381611ca2577f4e487b7100000000000000000000000000000000000000000000000000000000600052601260045260246000fd5b0492506002810190505b600a8310611cbb576001810190505b80915050919050565b611cce83836120c0565b611cdb60008484846118f6565b611d1a576040517f08c379a0000000000000000000000000000000000000000000000000000000008152600401611d1190612b25565b60405180910390fd5b505050565b50505050565b6008805490506009600083815260200190815260200160002081905550600881908060018154018082558091505060019003906000526020600020016000909190919091505550565b60006001611d7b846108b1565b611d859190612dca565b9050600060076000848152602001908152602001600020549050818114611e6a576000600660008673ffffffffffffffffffffffffffffffffffffffff1673ffffffffffffffffffffffffffffffffffffffff168152602001908152602001600020600084815260200190815260200160002054905080600660008773ffffffffffffffffffffffffffffffffffffffff1673ffffffffffffffffffffffffffffffffffffffff168152602001908152602001600020600084815260200190815260200160002081905550816007600083815260200190815260200160002081905550505b6007600084815260200190815260200160002060009055600660008573ffffffffffffffffffffffffffffffffffffffff1673ffffffffffffffffffffffffffffffffffffffff16815260200190815260200160002060008381526020019081526020016000206000905550505050565b60006001600880549050611eef9190612dca565b9050600060096000848152602001908152602001600020549050600060088381548110611f45577f4e487b7100000000000000000000000000000000000000000000000000000000600052603260045260246000fd5b906000526020600020015490508060088381548110611f8d577f4e487b7100000000000000000000000000000000000000000000000000000000600052603260045260246000fd5b906000526020600020018190555081600960008381526020019081526020016000208190555060096000858152602001908152602001600020600090556008805480612002577f4e487b7100000000000000000000000000000000000000000000000000000000600052603160045260246000fd5b6001900381819060005260206000200160009055905550505050565b6000612029836108b1565b905081600660008573ffffffffffffffffffffffffffffffffffffffff1673ffffffffffffffffffffffffffffffffffffffff168152602001908152602001600020600083815260200190815260200160002081905550806007600084815260200190815260200160002081905550505050565b6000808273ffffffffffffffffffffffffffffffffffffffff163b119050919050565b600073ffffffffffffffffffffffffffffffffffffffff168273ffffffffffffffffffffffffffffffffffffffff161415612130576040517f08c379a000000000000000000000000000000000000000000000000000000000815260040161212790612c05565b60405180910390fd5b6121398161174f565b15612179576040517f08c379a000000000000000000000000000000000000000000000000000000000815260040161217090612b85565b60405180910390fd5b612187600083836001611790565b6121908161174f565b156121d0576040517f08c379a00000000000000000000000000000000000000000000000000000000081526004016121c790612b85565b60405180910390fd5b6001600360008473ffffffffffffffffffffffffffffffffffffffff1673ffffffffffffffffffffffffffffffffffffffff16815260200190815260200160002060008282540192505081905550816002600083815260200190815260200160002060006101000a81548173ffffffffffffffffffffffffffffffffffffffff021916908373ffffffffffffffffffffffffffffffffffffffff160217905550808273ffffffffffffffffffffffffffffffffffffffff16600073ffffffffffffffffffffffffffffffffffffffff167fddf252ad1be2c89b69c2b068fc378daa952ba7f163c4a11628f55a4df523b3ef60405160405180910390a46122da6000838360016118f0565b5050565b8280546122ea90612eb4565b90600052602060002090601f01602090048101928261230c5760008555612353565b82601f1061232557805160ff1916838001178555612353565b82800160010185558215612353579182015b82811115612352578251825591602001919060010190612337565b5b5090506123609190612364565b5090565b5b8082111561237d576000816000905550600101612365565b5090565b600061239461238f84612d25565b612d00565b9050828152602081018484840111156123ac57600080fd5b6123b7848285612e72565b509392505050565b60006123d26123cd84612d56565b612d00565b9050828152602081018484840111156123ea57600080fd5b6123f5848285612e72565b509392505050565b60008135905061240c816133e7565b92915050565b600081359050612421816133fe565b92915050565b60008135905061243681613415565b92915050565b60008151905061244b81613415565b92915050565b600082601f83011261246257600080fd5b8135612472848260208601612381565b91505092915050565b600082601f83011261248c57600080fd5b813561249c8482602086016123bf565b91505092915050565b6000813590506124b48161342c565b92915050565b6000602082840312156124cc57600080fd5b60006124da848285016123fd565b91505092915050565b600080604083850312156124f657600080fd5b6000612504858286016123fd565b9250506020612515858286016123fd565b9150509250929050565b60008060006060848603121561253457600080fd5b6000612542868287016123fd565b9350506020612553868287016123fd565b9250506040612564868287016124a5565b9150509250925092565b6000806000806080858703121561258457600080fd5b6000612592878288016123fd565b94505060206125a3878288016123fd565b93505060406125b4878288016124a5565b925050606085013567ffffffffffffffff8111156125d157600080fd5b6125dd87828801612451565b91505092959194509250565b600080604083850312156125fc57600080fd5b600061260a858286016123fd565b925050602061261b85828601612412565b9150509250929050565b6000806040838503121561263857600080fd5b6000612646858286016123fd565b9250506020612657858286016124a5565b9150509250929050565b60006020828403121561267357600080fd5b600061268184828501612427565b91505092915050565b60006020828403121561269c57600080fd5b60006126aa8482850161243c565b91505092915050565b6000602082840312156126c557600080fd5b600082013567ffffffffffffffff8111156126df57600080fd5b6126eb8482850161247b565b91505092915050565b60006020828403121561270657600080fd5b6000612714848285016124a5565b91505092915050565b61272681612dfe565b82525050565b61273581612e10565b82525050565b600061274682612d87565b6127508185612d9d565b9350612760818560208601612e81565b61276981612fa4565b840191505092915050565b600061277f82612d92565b6127898185612dae565b9350612799818560208601612e81565b6127a281612fa4565b840191505092915050565b60006127b882612d92565b6127c28185612dbf565b93506127d2818560208601612e81565b80840191505092915050565b60006127eb602d83612dae565b91506127f682612fb5565b604082019050919050565b600061280e602b83612dae565b915061281982613004565b604082019050919050565b6000612831603283612dae565b915061283c82613053565b604082019050919050565b6000612854602683612dae565b915061285f826130a2565b604082019050919050565b6000612877602583612dae565b9150612882826130f1565b604082019050919050565b600061289a601c83612dae565b91506128a582613140565b602082019050919050565b60006128bd602483612dae565b91506128c882613169565b604082019050919050565b60006128e0601983612dae565b91506128eb826131b8565b602082019050919050565b6000612903602983612dae565b915061290e826131e1565b604082019050919050565b6000612926602083612dae565b915061293182613230565b602082019050919050565b6000612949602083612dae565b915061295482613259565b602082019050919050565b600061296c601883612dae565b915061297782613282565b602082019050919050565b600061298f602183612dae565b915061299a826132ab565b604082019050919050565b60006129b2603d83612dae565b91506129bd826132fa565b604082019050919050565b60006129d5602c83612dae565b91506129e082613349565b604082019050919050565b60006129f8603583612dae565b9150612a0382613398565b604082019050919050565b612a1781612e68565b82525050565b6000612a2982856127ad565b9150612a3582846127ad565b91508190509392505050565b6000602082019050612a56600083018461271d565b92915050565b6000608082019050612a71600083018761271d565b612a7e602083018661271d565b612a8b6040830185612a0e565b8181036060830152612a9d818461273b565b905095945050505050565b6000602082019050612abd600083018461272c565b92915050565b60006020820190508181036000830152612add8184612774565b905092915050565b60006020820190508181036000830152612afe816127de565b9050919050565b60006020820190508181036000830152612b1e81612801565b9050919050565b60006020820190508181036000830152612b3e81612824565b9050919050565b60006020820190508181036000830152612b5e81612847565b9050919050565b60006020820190508181036000830152612b7e8161286a565b9050919050565b60006020820190508181036000830152612b9e8161288d565b9050919050565b60006020820190508181036000830152612bbe816128b0565b9050919050565b60006020820190508181036000830152612bde816128d3565b9050919050565b60006020820190508181036000830152612bfe816128f6565b9050919050565b60006020820190508181036000830152612c1e81612919565b9050919050565b60006020820190508181036000830152612c3e8161293c565b9050919050565b60006020820190508181036000830152612c5e8161295f565b9050919050565b60006020820190508181036000830152612c7e81612982565b9050919050565b60006020820190508181036000830152612c9e816129a5565b9050919050565b60006020820190508181036000830152612cbe816129c8565b9050919050565b60006020820190508181036000830152612cde816129eb565b9050919050565b6000602082019050612cfa6000830184612a0e565b92915050565b6000612d0a612d1b565b9050612d168282612ee6565b919050565b6000604051905090565b600067ffffffffffffffff821115612d4057612d3f612f75565b5b612d4982612fa4565b9050602081019050919050565b600067ffffffffffffffff821115612d7157612d70612f75565b5b612d7a82612fa4565b9050602081019050919050565b600081519050919050565b600081519050919050565b600082825260208201905092915050565b600082825260208201905092915050565b600081905092915050565b6000612dd582612e68565b9150612de083612e68565b925082821015612df357612df2612f17565b5b828203905092915050565b6000612e0982612e48565b9050919050565b60008115159050919050565b60007fffffffff0000000000000000000000000000000000000000000000000000000082169050919050565b600073ffffffffffffffffffffffffffffffffffffffff82169050919050565b6000819050919050565b82818337600083830152505050565b60005b83811015612e9f578082015181840152602081019050612e84565b83811115612eae576000848401525b50505050565b60006002820490506001821680612ecc57607f821691505b60208210811415612ee057612edf612f46565b5b50919050565b612eef82612fa4565b810181811067ffffffffffffffff82111715612f0e57612f0d612f75565b5b80604052505050565b7f4e487b7100000000000000000000000000000000000000000000000000000000600052601160045260246000fd5b7f4e487b7100000000000000000000000000000000000000000000000000000000600052602260045260246000fd5b7f4e487b7100000000000000000000000000000000000000000000000000000000600052604160045260246000fd5b6000601f19601f8301169050919050565b7f4552433732313a2063616c6c6572206973206e6f7420746f6b656e206f776e6560008201527f72206f7220617070726f76656400000000000000000000000000000000000000602082015250565b7f455243373231456e756d657261626c653a206f776e657220696e646578206f7560008201527f74206f6620626f756e6473000000000000000000000000000000000000000000602082015250565b7f4552433732313a207472616e7366657220746f206e6f6e20455243373231526560008201527f63656976657220696d706c656d656e7465720000000000000000000000000000602082015250565b7f4f776e61626c653a206e6577206f776e657220697320746865207a65726f206160008201527f6464726573730000000000000000000000000000000000000000000000000000602082015250565b7f4552433732313a207472616e736665722066726f6d20696e636f72726563742060008201527f6f776e6572000000000000000000000000000000000000000000000000000000602082015250565b7f4552433732313a20746f6b656e20616c7265616479206d696e74656400000000600082015250565b7f4552433732313a207472616e7366657220746f20746865207a65726f2061646460008201527f7265737300000000000000000000000000000000000000000000000000000000602082015250565b7f4552433732313a20617070726f766520746f2063616c6c657200000000000000600082015250565b7f4552433732313a2061646472657373207a65726f206973206e6f74206120766160008201527f6c6964206f776e65720000000000000000000000000000000000000000000000602082015250565b7f4552433732313a206d696e7420746f20746865207a65726f2061646472657373600082015250565b7f4f776e61626c653a2063616c6c6572206973206e6f7420746865206f776e6572600082015250565b7f4552433732313a20696e76616c696420746f6b656e2049440000000000000000600082015250565b7f4552433732313a20617070726f76616c20746f2063757272656e74206f776e6560008201527f7200000000000000000000000000000000000000000000000000000000000000602082015250565b7f4552433732313a20617070726f76652063616c6c6572206973206e6f7420746f60008201527f6b656e206f776e6572206f7220617070726f76656420666f7220616c6c000000602082015250565b7f455243373231456e756d657261626c653a20676c6f62616c20696e646578206f60008201527f7574206f6620626f756e64730000000000000000000000000000000000000000602082015250565b7f455243373231456e756d657261626c653a20636f6e736563757469766520747260008201527f616e7366657273206e6f7420737570706f727465640000000000000000000000602082015250565b6133f081612dfe565b81146133fb57600080fd5b50565b61340781612e10565b811461341257600080fd5b50565b61341e81612e1c565b811461342957600080fd5b50565b61343581612e68565b811461344057600080fd5b5056fea264697066735822122062dbb3305dfd91d0a20ce0064ef402973e332599f5dc9b8aaa8c1ffa3019cb5a64736f6c63430008010033",
  "linkReferences": {},
  "deployedLinkReferences": {}
}