{
  "_format": "hh-sol-artifact-1",
  "contractName": "InvestDAO",
  "sourceName": "contracts/InvestDAO.sol",
  "abi": [
    {
      "inputs": [
        {
          "internalType": "address",
          "name": "_nftContract",
          "type": "address"
        },
        {
          "internalType": "address",
          "name": "_extMarketplace",
          "type": "address"
        },
        {
          "internalType": "address",
          "name": "_ownMarketplace",
          "type": "address"
        }
      ],
      "stateMutability": "nonpayable",
      "type": "constructor"
    },
    {
      "anonymous": false,
      "inputs": [
        {
          "indexed": true,
          "internalType": "address",
          "name": "previousOwner",
          "type": "address"
        },
        {
          "indexed": true,
          "internalType": "address",
          "name": "newOwner",
          "type": "address"
        }
      ],
      "name": "OwnershipTransferred",
      "type": "event"
    },
    {
      "stateMutability": "payable",
      "type": "fallback"
    },
    {
      "inputs": [
        {
          "internalType": "uint256",
          "name": "_tokenId",
          "type": "uint256"
        }
      ],
      "name": "createProposal",
      "outputs": [],
      "stateMutability": "nonpayable",
      "type": "function"
    },
    {
      "inputs": [
        {
          "internalType": "uint256",
          "name": "_proposalId",
          "type": "uint256"
        }
      ],
      "name": "executeProposal",
      "outputs": [],
      "stateMutability": "nonpayable",
      "type": "function"
    },
    {
      "inputs": [],
      "name": "owner",
      "outputs": [
        {
          "internalType": "address",
          "name": "",
          "type": "address"
        }
      ],
      "stateMutability": "view",
      "type": "function"
    },
    {
      "inputs": [
        {
          "internalType": "uint256",
          "name": "",
          "type": "uint256"
        }
      ],
      "name": "proposals",
      "outputs": [
        {
          "internalType": "uint256",
          "name": "tokenId",
          "type": "uint256"
        },
        {
          "internalType": "uint256",
          "name": "cost",
          "type": "uint256"
        },
        {
          "internalType": "uint256",
          "name": "deadline",
          "type": "uint256"
        },
        {
          "internalType": "uint256",
          "name": "yayVotes",
          "type": "uint256"
        },
        {
          "internalType": "uint256",
          "name": "nayVotes",
          "type": "uint256"
        },
        {
          "internalType": "bool",
          "name": "executed",
          "type": "bool"
        }
      ],
      "stateMutability": "view",
      "type": "function"
    },
    {
      "inputs": [],
      "name": "renounceOwnership",
      "outputs": [],
      "stateMutability": "nonpayable",
      "type": "function"
    },
    {
      "inputs": [
        {
          "internalType": "address",
          "name": "newOwner",
          "type": "address"
        }
      ],
      "name": "transferOwnership",
      "outputs": [],
      "stateMutability": "nonpayable",
      "type": "function"
    },
    {
      "inputs": [
        {
          "internalType": "uint256",
          "name": "_proposalId",
          "type": "uint256"
        },
        {
          "internalType": "enum InvestDAO.Vote",
          "name": "_option",
          "type": "uint8"
        }
      ],
      "name": "vote",
      "outputs": [],
      "stateMutability": "nonpayable",
      "type": "function"
    },
    {
      "inputs": [],
      "name": "withdraw",
      "outputs": [],
      "stateMutability": "nonpayable",
      "type": "function"
    },
    {
      "stateMutability": "payable",
      "type": "receive"
    }
  ],
  "bytecode": "0x60806040523480156200001157600080fd5b5060405162001f5838038062001f58833981810160405281019062000037919062000206565b620000576200004b6200012360201b60201c565b6200012b60201b60201c565b82600260006101000a81548173ffffffffffffffffffffffffffffffffffffffff021916908373ffffffffffffffffffffffffffffffffffffffff16021790555081600360006101000a81548173ffffffffffffffffffffffffffffffffffffffff021916908373ffffffffffffffffffffffffffffffffffffffff16021790555080600460006101000a81548173ffffffffffffffffffffffffffffffffffffffff021916908373ffffffffffffffffffffffffffffffffffffffff160217905550505050620002aa565b600033905090565b60008060009054906101000a900473ffffffffffffffffffffffffffffffffffffffff169050816000806101000a81548173ffffffffffffffffffffffffffffffffffffffff021916908373ffffffffffffffffffffffffffffffffffffffff1602179055508173ffffffffffffffffffffffffffffffffffffffff168173ffffffffffffffffffffffffffffffffffffffff167f8be0079c531659141344cd1fd0a4f28419497f9722a3daafe3b4186f6b6457e060405160405180910390a35050565b600081519050620002008162000290565b92915050565b6000806000606084860312156200021c57600080fd5b60006200022c86828701620001ef565b93505060206200023f86828701620001ef565b92505060406200025286828701620001ef565b9150509250925092565b6000620002698262000270565b9050919050565b600073ffffffffffffffffffffffffffffffffffffffff82169050919050565b6200029b816200025c565b8114620002a757600080fd5b50565b611c9e80620002ba6000396000f3fe60806040526004361061007f5760003560e01c8063715018a61161004e578063715018a6146101335780638da5cb5b1461014a578063943e821614610175578063f2fde38b1461019e57610086565b8063013cf08b146100885780630d61b519146100ca5780633ccfd60b146100f35780635a43dc001461010a57610086565b3661008657005b005b34801561009457600080fd5b506100af60048036038101906100aa9190611338565b6101c7565b6040516100c196959493929190611742565b60405180910390f35b3480156100d657600080fd5b506100f160048036038101906100ec9190611338565b610210565b005b3480156100ff57600080fd5b50610108610650565b005b34801561011657600080fd5b50610131600480360381019061012c9190611338565b61094b565b005b34801561013f57600080fd5b50610148610c1d565b005b34801561015657600080fd5b5061015f610c31565b60405161016c91906115ac565b60405180910390f35b34801561018157600080fd5b5061019c6004803603810190610197919061138a565b610c5a565b005b3480156101aa57600080fd5b506101c560048036038101906101c091906112e6565b6110af565b005b60016020528060005260406000206000915090508060000154908060010154908060020154908060030154908060040154908060050160009054906101000a900460ff16905086565b6000600260009054906101000a900473ffffffffffffffffffffffffffffffffffffffff1673ffffffffffffffffffffffffffffffffffffffff166370a08231336040518263ffffffff1660e01b815260040161026d91906115ac565b60206040518083038186803b15801561028557600080fd5b505afa158015610299573d6000803e3d6000fd5b505050506040513d601f19601f820116820180604052508101906102bd9190611361565b116102fd576040517f08c379a00000000000000000000000000000000000000000000000000000000081526004016102f4906116c7565b60405180910390fd5b8042600160008381526020019081526020016000206002015410610356576040517f08c379a000000000000000000000000000000000000000000000000000000000815260040161034d90611687565b60405180910390fd5b6001600082815260200190815260200160002060050160009054906101000a900460ff16156103ba576040517f08c379a00000000000000000000000000000000000000000000000000000000081526004016103b1906116e7565b60405180910390fd5b6000600160008481526020019081526020016000209050600360009054906101000a900473ffffffffffffffffffffffffffffffffffffffff1673ffffffffffffffffffffffffffffffffffffffff166396e494e882600001546040518263ffffffff1660e01b81526004016104309190611727565b60206040518083038186803b15801561044857600080fd5b505afa15801561045c573d6000803e3d6000fd5b505050506040513d601f19601f82011682018060405250810190610480919061130f565b6104bf576040517f08c379a00000000000000000000000000000000000000000000000000000000081526004016104b690611647565b60405180910390fd5b600460009054906101000a900473ffffffffffffffffffffffffffffffffffffffff1673ffffffffffffffffffffffffffffffffffffffff16633ccfd60b6040518163ffffffff1660e01b8152600401600060405180830381600087803b15801561052957600080fd5b505af115801561053d573d6000803e3d6000fd5b5050505080600101544711610587576040517f08c379a000000000000000000000000000000000000000000000000000000000815260040161057e90611627565b60405180910390fd5b80600401548160030154111561062e57600360009054906101000a900473ffffffffffffffffffffffffffffffffffffffff1673ffffffffffffffffffffffffffffffffffffffff1663efef39a1826001015483600001546040518363ffffffff1660e01b81526004016105fb9190611727565b6000604051808303818588803b15801561061457600080fd5b505af1158015610628573d6000803e3d6000fd5b50505050505b60018160050160006101000a81548160ff021916908315150217905550505050565b6000600260009054906101000a900473ffffffffffffffffffffffffffffffffffffffff1673ffffffffffffffffffffffffffffffffffffffff166370a08231336040518263ffffffff1660e01b81526004016106ad91906115ac565b60206040518083038186803b1580156106c557600080fd5b505afa1580156106d9573d6000803e3d6000fd5b505050506040513d601f19601f820116820180604052508101906106fd9190611361565b1161073d576040517f08c379a0000000000000000000000000000000000000000000000000000000008152600401610734906116c7565b60405180910390fd5b60003373ffffffffffffffffffffffffffffffffffffffff1647600260009054906101000a900473ffffffffffffffffffffffffffffffffffffffff1673ffffffffffffffffffffffffffffffffffffffff166318160ddd6040518163ffffffff1660e01b815260040160206040518083038186803b1580156107bf57600080fd5b505afa1580156107d3573d6000803e3d6000fd5b505050506040513d601f19601f820116820180604052508101906107f79190611361565b600260009054906101000a900473ffffffffffffffffffffffffffffffffffffffff1673ffffffffffffffffffffffffffffffffffffffff166370a08231336040518263ffffffff1660e01b815260040161085291906115ac565b60206040518083038186803b15801561086a57600080fd5b505afa15801561087e573d6000803e3d6000fd5b505050506040513d601f19601f820116820180604052508101906108a29190611361565b6108ac9190611815565b6108b69190611846565b6040516108c290611597565b60006040518083038185875af1925050503d80600081146108ff576040519150601f19603f3d011682016040523d82523d6000602084013e610904565b606091505b5050905080610948576040517f08c379a000000000000000000000000000000000000000000000000000000000815260040161093f90611707565b60405180910390fd5b50565b6000600260009054906101000a900473ffffffffffffffffffffffffffffffffffffffff1673ffffffffffffffffffffffffffffffffffffffff166370a08231336040518263ffffffff1660e01b81526004016109a891906115ac565b60206040518083038186803b1580156109c057600080fd5b505afa1580156109d4573d6000803e3d6000fd5b505050506040513d601f19601f820116820180604052508101906109f89190611361565b11610a38576040517f08c379a0000000000000000000000000000000000000000000000000000000008152600401610a2f906116c7565b60405180910390fd5b600360009054906101000a900473ffffffffffffffffffffffffffffffffffffffff1673ffffffffffffffffffffffffffffffffffffffff166396e494e8826040518263ffffffff1660e01b8152600401610a939190611727565b60206040518083038186803b158015610aab57600080fd5b505afa158015610abf573d6000803e3d6000fd5b505050506040513d601f19601f82011682018060405250810190610ae3919061130f565b610b22576040517f08c379a0000000000000000000000000000000000000000000000000000000008152600401610b1990611607565b60405180910390fd5b60006001600060055481526020019081526020016000209050818160000181905550607842610b5191906117bf565b8160020181905550600360009054906101000a900473ffffffffffffffffffffffffffffffffffffffff1673ffffffffffffffffffffffffffffffffffffffff166398d5fdca6040518163ffffffff1660e01b815260040160206040518083038186803b158015610bc157600080fd5b505afa158015610bd5573d6000803e3d6000fd5b505050506040513d601f19601f82011682018060405250810190610bf99190611361565b816001018190555060056000815480929190610c14906118e8565b91905055505050565b610c25611133565b610c2f60006111b1565b565b60008060009054906101000a900473ffffffffffffffffffffffffffffffffffffffff16905090565b6000600260009054906101000a900473ffffffffffffffffffffffffffffffffffffffff1673ffffffffffffffffffffffffffffffffffffffff166370a08231336040518263ffffffff1660e01b8152600401610cb791906115ac565b60206040518083038186803b158015610ccf57600080fd5b505afa158015610ce3573d6000803e3d6000fd5b505050506040513d601f19601f82011682018060405250810190610d079190611361565b11610d47576040517f08c379a0000000000000000000000000000000000000000000000000000000008152600401610d3e906116c7565b60405180910390fd5b8142600160008381526020019081526020016000206002015411610da0576040517f08c379a0000000000000000000000000000000000000000000000000000000008152600401610d97906116a7565b60405180910390fd5b60006001600085815260200190815260200160002090508060060160003373ffffffffffffffffffffffffffffffffffffffff1673ffffffffffffffffffffffffffffffffffffffff16815260200190815260200160002060009054906101000a900460ff1615610e46576040517f08c379a0000000000000000000000000000000000000000000000000000000008152600401610e3d906115c7565b60405180910390fd5b60018160060160003373ffffffffffffffffffffffffffffffffffffffff1673ffffffffffffffffffffffffffffffffffffffff16815260200190815260200160002060006101000a81548160ff02191690831515021790555060006001811115610eda577f4e487b7100000000000000000000000000000000000000000000000000000000600052602160045260246000fd5b836001811115610f13577f4e487b7100000000000000000000000000000000000000000000000000000000600052602160045260246000fd5b1415610fe357600260009054906101000a900473ffffffffffffffffffffffffffffffffffffffff1673ffffffffffffffffffffffffffffffffffffffff166370a08231336040518263ffffffff1660e01b8152600401610f7491906115ac565b60206040518083038186803b158015610f8c57600080fd5b505afa158015610fa0573d6000803e3d6000fd5b505050506040513d601f19601f82011682018060405250810190610fc49190611361565b816003016000828254610fd791906117bf565b925050819055506110a9565b600260009054906101000a900473ffffffffffffffffffffffffffffffffffffffff1673ffffffffffffffffffffffffffffffffffffffff166370a08231336040518263ffffffff1660e01b815260040161103e91906115ac565b60206040518083038186803b15801561105657600080fd5b505afa15801561106a573d6000803e3d6000fd5b505050506040513d601f19601f8201168201806040525081019061108e9190611361565b8160040160008282546110a191906117bf565b925050819055505b50505050565b6110b7611133565b600073ffffffffffffffffffffffffffffffffffffffff168173ffffffffffffffffffffffffffffffffffffffff161415611127576040517f08c379a000000000000000000000000000000000000000000000000000000000815260040161111e906115e7565b60405180910390fd5b611130816111b1565b50565b61113b611275565b73ffffffffffffffffffffffffffffffffffffffff16611159610c31565b73ffffffffffffffffffffffffffffffffffffffff16146111af576040517f08c379a00000000000000000000000000000000000000000000000000000000081526004016111a690611667565b60405180910390fd5b565b60008060009054906101000a900473ffffffffffffffffffffffffffffffffffffffff169050816000806101000a81548173ffffffffffffffffffffffffffffffffffffffff021916908373ffffffffffffffffffffffffffffffffffffffff1602179055508173ffffffffffffffffffffffffffffffffffffffff168173ffffffffffffffffffffffffffffffffffffffff167f8be0079c531659141344cd1fd0a4f28419497f9722a3daafe3b4186f6b6457e060405160405180910390a35050565b600033905090565b60008135905061128c81611c13565b92915050565b6000815190506112a181611c2a565b92915050565b6000813590506112b681611c41565b92915050565b6000813590506112cb81611c51565b92915050565b6000815190506112e081611c51565b92915050565b6000602082840312156112f857600080fd5b60006113068482850161127d565b91505092915050565b60006020828403121561132157600080fd5b600061132f84828501611292565b91505092915050565b60006020828403121561134a57600080fd5b6000611358848285016112bc565b91505092915050565b60006020828403121561137357600080fd5b6000611381848285016112d1565b91505092915050565b6000806040838503121561139d57600080fd5b60006113ab858286016112bc565b92505060206113bc858286016112a7565b9150509250929050565b6113cf816118a0565b82525050565b6113de816118b2565b82525050565b60006113f16028836117ae565b91506113fc8261198f565b604082019050919050565b60006114146026836117ae565b915061141f826119de565b604082019050919050565b6000611437601b836117ae565b915061144282611a2d565b602082019050919050565b600061145a6010836117ae565b915061146582611a56565b602082019050919050565b600061147d600c836117a3565b915061148882611a7f565b600c82019050919050565b60006114a0601f836117ae565b91506114ab82611aa8565b602082019050919050565b60006114c36020836117ae565b91506114ce82611ad1565b602082019050919050565b60006114e6601d836117ae565b91506114f182611afa565b602082019050919050565b60006115096019836117ae565b915061151482611b23565b602082019050919050565b600061152c602a836117ae565b915061153782611b4c565b604082019050919050565b600061154f6027836117ae565b915061155a82611b9b565b604082019050919050565b6000611572600f836117ae565b915061157d82611bea565b602082019050919050565b611591816118de565b82525050565b60006115a282611470565b9150819050919050565b60006020820190506115c160008301846113c6565b92915050565b600060208201905081810360008301526115e0816113e4565b9050919050565b6000602082019050818103600083015261160081611407565b9050919050565b600060208201905081810360008301526116208161142a565b9050919050565b600060208201905081810360008301526116408161144d565b9050919050565b6000602082019050818103600083015261166081611493565b9050919050565b60006020820190508181036000830152611680816114b6565b9050919050565b600060208201905081810360008301526116a0816114d9565b9050919050565b600060208201905081810360008301526116c0816114fc565b9050919050565b600060208201905081810360008301526116e08161151f565b9050919050565b6000602082019050818103600083015261170081611542565b9050919050565b6000602082019050818103600083015261172081611565565b9050919050565b600060208201905061173c6000830184611588565b92915050565b600060c0820190506117576000830189611588565b6117646020830188611588565b6117716040830187611588565b61177e6060830186611588565b61178b6080830185611588565b61179860a08301846113d5565b979650505050505050565b600081905092915050565b600082825260208201905092915050565b60006117ca826118de565b91506117d5836118de565b9250827fffffffffffffffffffffffffffffffffffffffffffffffffffffffffffffffff0382111561180a57611809611931565b5b828201905092915050565b6000611820826118de565b915061182b836118de565b92508261183b5761183a611960565b5b828204905092915050565b6000611851826118de565b915061185c836118de565b9250817fffffffffffffffffffffffffffffffffffffffffffffffffffffffffffffffff048311821515161561189557611894611931565b5b828202905092915050565b60006118ab826118be565b9050919050565b60008115159050919050565b600073ffffffffffffffffffffffffffffffffffffffff82169050919050565b6000819050919050565b60006118f3826118de565b91507fffffffffffffffffffffffffffffffffffffffffffffffffffffffffffffffff82141561192657611925611931565b5b600182019050919050565b7f4e487b7100000000000000000000000000000000000000000000000000000000600052601160045260246000fd5b7f4e487b7100000000000000000000000000000000000000000000000000000000600052601260045260246000fd5b7f596f75206861766520616c726561647920766f74656420666f7220746869732060008201527f70726f706f73616c000000000000000000000000000000000000000000000000602082015250565b7f4f776e61626c653a206e6577206f776e657220697320746865207a65726f206160008201527f6464726573730000000000000000000000000000000000000000000000000000602082015250565b7f5468697320746f6b656e206973206e6f7420617661696c61626c650000000000600082015250565b7f4e6f7420656e6f7567682066756e647300000000000000000000000000000000600082015250565b7f46726f6d2072657475726e730000000000000000000000000000000000000000600082015250565b7f746f6b656e206e6f7420617661696c61626c6520746f20707572636861736500600082015250565b7f4f776e61626c653a2063616c6c6572206973206e6f7420746865206f776e6572600082015250565b7f546869732070726f706f73616c206973207374696c6c20616374697665000000600082015250565b7f546869732070726f706f73616c206973206e6f74206c69766500000000000000600082015250565b7f596f7520646f206e6f7420686f6c64206f7572204e465420746f206d616b652060008201527f612070726f706f73616c00000000000000000000000000000000000000000000602082015250565b7f546869732070726f706f73616c2068617320616c7265616479206265656e206560008201527f7865637574656400000000000000000000000000000000000000000000000000602082015250565b7f7769746864726177206661696c65640000000000000000000000000000000000600082015250565b611c1c816118a0565b8114611c2757600080fd5b50565b611c33816118b2565b8114611c3e57600080fd5b50565b60028110611c4e57600080fd5b50565b611c5a816118de565b8114611c6557600080fd5b5056fea264697066735822122096596c1ac8f860e04c1c68c5d502729346627b574746dbddec3076360ac9b85864736f6c63430008010033",
  "linkReferences": {},
  "deployedLinkReferences": {}
}