{
  "_format": "hh-sol-artifact-1",
  "contractName": "Marketplace",
  "sourceName": "contracts/Marketplace.sol",
  "abi": [
    {
      "inputs": [
        {
          "internalType": "address",
          "name": "nftContractAddress",
          "type": "address"
        }
      ],
      "stateMutability": "nonpayable",
      "type": "constructor"
    },
    {
      "anonymous": false,
      "inputs": [
        {
          "indexed": true,
          "internalType": "address",
          "name": "previousOwner",
          "type": "address"
        },
        {
          "indexed": true,
          "internalType": "address",
          "name": "newOwner",
          "type": "address"
        }
      ],
      "name": "OwnershipTransferred",
      "type": "event"
    },
    {
      "inputs": [],
      "name": "airDrop",
      "outputs": [],
      "stateMutability": "nonpayable",
      "type": "function"
    },
    {
      "inputs": [
        {
          "internalType": "address",
          "name": "addr",
          "type": "address"
        }
      ],
      "name": "approve",
      "outputs": [],
      "stateMutability": "nonpayable",
      "type": "function"
    },
    {
      "inputs": [
        {
          "internalType": "uint256",
          "name": "_tokenId",
          "type": "uint256"
        }
      ],
      "name": "available",
      "outputs": [
        {
          "internalType": "bool",
          "name": "",
          "type": "bool"
        }
      ],
      "stateMutability": "view",
      "type": "function"
    },
    {
      "inputs": [
        {
          "internalType": "uint256",
          "name": "_tokenId",
          "type": "uint256"
        }
      ],
      "name": "getPrice",
      "outputs": [
        {
          "internalType": "uint256",
          "name": "",
          "type": "uint256"
        }
      ],
      "stateMutability": "view",
      "type": "function"
    },
    {
      "inputs": [],
      "name": "owner",
      "outputs": [
        {
          "internalType": "address",
          "name": "",
          "type": "address"
        }
      ],
      "stateMutability": "view",
      "type": "function"
    },
    {
      "inputs": [
        {
          "internalType": "uint256",
          "name": "_tokenId",
          "type": "uint256"
        }
      ],
      "name": "purchase",
      "outputs": [],
      "stateMutability": "payable",
      "type": "function"
    },
    {
      "inputs": [],
      "name": "renounceOwnership",
      "outputs": [],
      "stateMutability": "nonpayable",
      "type": "function"
    },
    {
      "inputs": [
        {
          "internalType": "address",
          "name": "newOwner",
          "type": "address"
        }
      ],
      "name": "transferOwnership",
      "outputs": [],
      "stateMutability": "nonpayable",
      "type": "function"
    },
    {
      "inputs": [],
      "name": "withdraw",
      "outputs": [],
      "stateMutability": "nonpayable",
      "type": "function"
    }
  ],
  "bytecode": "0x60806040523480156200001157600080fd5b506040516200157c3803806200157c833981810160405281019062000037919062000182565b620000576200004b6200009f60201b60201c565b620000a760201b60201c565b80600160006101000a81548173ffffffffffffffffffffffffffffffffffffffff021916908373ffffffffffffffffffffffffffffffffffffffff16021790555050620001fc565b600033905090565b60008060009054906101000a900473ffffffffffffffffffffffffffffffffffffffff169050816000806101000a81548173ffffffffffffffffffffffffffffffffffffffff021916908373ffffffffffffffffffffffffffffffffffffffff1602179055508173ffffffffffffffffffffffffffffffffffffffff168173ffffffffffffffffffffffffffffffffffffffff167f8be0079c531659141344cd1fd0a4f28419497f9722a3daafe3b4186f6b6457e060405160405180910390a35050565b6000815190506200017c81620001e2565b92915050565b6000602082840312156200019557600080fd5b6000620001a5848285016200016b565b91505092915050565b6000620001bb82620001c2565b9050919050565b600073ffffffffffffffffffffffffffffffffffffffff82169050919050565b620001ed81620001ae565b8114620001f957600080fd5b50565b611370806200020c6000396000f3fe6080604052600436106100865760003560e01c8063ca5d088011610059578063ca5d088014610121578063daea85c514610138578063e757223014610161578063efef39a11461019e578063f2fde38b146101ba57610086565b80633ccfd60b1461008b578063715018a6146100a25780638da5cb5b146100b957806396e494e8146100e4575b600080fd5b34801561009757600080fd5b506100a06101e3565b005b3480156100ae57600080fd5b506100b7610324565b005b3480156100c557600080fd5b506100ce610338565b6040516100db9190610f34565b60405180910390f35b3480156100f057600080fd5b5061010b60048036038101906101069190610d88565b610361565b6040516101189190610f86565b60405180910390f35b34801561012d57600080fd5b506101366104c1565b005b34801561014457600080fd5b5061015f600480360381019061015a9190610d36565b6106c2565b005b34801561016d57600080fd5b5061018860048036038101906101839190610d88565b610725565b6040516101959190611081565b60405180910390f35b6101b860048036038101906101b39190610d88565b61081a565b005b3480156101c657600080fd5b506101e160048036038101906101dc9190610d36565b610b14565b005b600360003373ffffffffffffffffffffffffffffffffffffffff1673ffffffffffffffffffffffffffffffffffffffff16815260200190815260200160002060009054906101000a900460ff1661026f576040517f08c379a000000000000000000000000000000000000000000000000000000000815260040161026690610fa1565b60405180910390fd5b600047905060003373ffffffffffffffffffffffffffffffffffffffff168260405161029a90610f1f565b60006040518083038185875af1925050503d80600081146102d7576040519150601f19603f3d011682016040523d82523d6000602084013e6102dc565b606091505b5050905080610320576040517f08c379a000000000000000000000000000000000000000000000000000000000815260040161031790611001565b60405180910390fd5b5050565b61032c610b98565b6103366000610c16565b565b60008060009054906101000a900473ffffffffffffffffffffffffffffffffffffffff16905090565b600081600160009054906101000a900473ffffffffffffffffffffffffffffffffffffffff1673ffffffffffffffffffffffffffffffffffffffff166318160ddd6040518163ffffffff1660e01b815260040160206040518083038186803b1580156103cc57600080fd5b505afa1580156103e0573d6000803e3d6000fd5b505050506040513d601f19601f820116820180604052508101906104049190610db1565b8110610445576040517f08c379a000000000000000000000000000000000000000000000000000000000815260040161043c90611061565b60405180910390fd5b600073ffffffffffffffffffffffffffffffffffffffff166002600085815260200190815260200160002060009054906101000a900473ffffffffffffffffffffffffffffffffffffffff1673ffffffffffffffffffffffffffffffffffffffff1614156104b657600191506104bb565b600091505b50919050565b6104c9610b98565b60005b600160009054906101000a900473ffffffffffffffffffffffffffffffffffffffff1673ffffffffffffffffffffffffffffffffffffffff166318160ddd6040518163ffffffff1660e01b815260040160206040518083038186803b15801561053457600080fd5b505afa158015610548573d6000803e3d6000fd5b505050506040513d601f19601f8201168201806040525081019061056c9190610db1565b8110156106bf57600073ffffffffffffffffffffffffffffffffffffffff166002600083815260200190815260200160002060009054906101000a900473ffffffffffffffffffffffffffffffffffffffff1673ffffffffffffffffffffffffffffffffffffffff1614156105e0576106ac565b600160009054906101000a900473ffffffffffffffffffffffffffffffffffffffff1673ffffffffffffffffffffffffffffffffffffffff166342842e0e610626610338565b6002600085815260200190815260200160002060009054906101000a900473ffffffffffffffffffffffffffffffffffffffff16846040518463ffffffff1660e01b815260040161067993929190610f4f565b600060405180830381600087803b15801561069357600080fd5b505af11580156106a7573d6000803e3d6000fd5b505050505b80806106b790611100565b9150506104cc565b50565b6106ca610b98565b6001600360008373ffffffffffffffffffffffffffffffffffffffff1673ffffffffffffffffffffffffffffffffffffffff16815260200190815260200160002060006101000a81548160ff02191690831515021790555050565b600081600160009054906101000a900473ffffffffffffffffffffffffffffffffffffffff1673ffffffffffffffffffffffffffffffffffffffff166318160ddd6040518163ffffffff1660e01b815260040160206040518083038186803b15801561079057600080fd5b505afa1580156107a4573d6000803e3d6000fd5b505050506040513d601f19601f820116820180604052508101906107c89190610db1565b8110610809576040517f08c379a000000000000000000000000000000000000000000000000000000000815260040161080090611061565b60405180910390fd5b67016345785d8a0000915050919050565b80600160009054906101000a900473ffffffffffffffffffffffffffffffffffffffff1673ffffffffffffffffffffffffffffffffffffffff166318160ddd6040518163ffffffff1660e01b815260040160206040518083038186803b15801561088357600080fd5b505afa158015610897573d6000803e3d6000fd5b505050506040513d601f19601f820116820180604052508101906108bb9190610db1565b81106108fc576040517f08c379a00000000000000000000000000000000000000000000000000000000081526004016108f390611061565b60405180910390fd5b8161090681610361565b610945576040517f08c379a000000000000000000000000000000000000000000000000000000000815260040161093c90610fc1565b60405180910390fd5b6509184e72a000341461098d576040517f08c379a000000000000000000000000000000000000000000000000000000000815260040161098490611021565b60405180910390fd5b600160009054906101000a900473ffffffffffffffffffffffffffffffffffffffff1673ffffffffffffffffffffffffffffffffffffffff166342842e0e600160009054906101000a900473ffffffffffffffffffffffffffffffffffffffff1673ffffffffffffffffffffffffffffffffffffffff16638da5cb5b6040518163ffffffff1660e01b815260040160206040518083038186803b158015610a3357600080fd5b505afa158015610a47573d6000803e3d6000fd5b505050506040513d601f19601f82011682018060405250810190610a6b9190610d5f565b33866040518463ffffffff1660e01b8152600401610a8b93929190610f4f565b600060405180830381600087803b158015610aa557600080fd5b505af1158015610ab9573d6000803e3d6000fd5b50505050336002600085815260200190815260200160002060006101000a81548173ffffffffffffffffffffffffffffffffffffffff021916908373ffffffffffffffffffffffffffffffffffffffff160217905550505050565b610b1c610b98565b600073ffffffffffffffffffffffffffffffffffffffff168173ffffffffffffffffffffffffffffffffffffffff161415610b8c576040517f08c379a0000000000000000000000000000000000000000000000000000000008152600401610b8390610fe1565b60405180910390fd5b610b9581610c16565b50565b610ba0610cda565b73ffffffffffffffffffffffffffffffffffffffff16610bbe610338565b73ffffffffffffffffffffffffffffffffffffffff1614610c14576040517f08c379a0000000000000000000000000000000000000000000000000000000008152600401610c0b90611041565b60405180910390fd5b565b60008060009054906101000a900473ffffffffffffffffffffffffffffffffffffffff169050816000806101000a81548173ffffffffffffffffffffffffffffffffffffffff021916908373ffffffffffffffffffffffffffffffffffffffff1602179055508173ffffffffffffffffffffffffffffffffffffffff168173ffffffffffffffffffffffffffffffffffffffff167f8be0079c531659141344cd1fd0a4f28419497f9722a3daafe3b4186f6b6457e060405160405180910390a35050565b600033905090565b600081359050610cf18161130c565b92915050565b600081519050610d068161130c565b92915050565b600081359050610d1b81611323565b92915050565b600081519050610d3081611323565b92915050565b600060208284031215610d4857600080fd5b6000610d5684828501610ce2565b91505092915050565b600060208284031215610d7157600080fd5b6000610d7f84828501610cf7565b91505092915050565b600060208284031215610d9a57600080fd5b6000610da884828501610d0c565b91505092915050565b600060208284031215610dc357600080fd5b6000610dd184828501610d21565b91505092915050565b610de3816110b8565b82525050565b610df2816110ca565b82525050565b6000610e05602a836110a7565b9150610e1082611178565b604082019050919050565b6000610e286013836110a7565b9150610e33826111c7565b602082019050919050565b6000610e4b6026836110a7565b9150610e56826111f0565b604082019050919050565b6000610e6e600f836110a7565b9150610e798261123f565b602082019050919050565b6000610e916013836110a7565b9150610e9c82611268565b602082019050919050565b6000610eb460168361109c565b9150610ebf82611291565b601682019050919050565b6000610ed76020836110a7565b9150610ee2826112ba565b602082019050919050565b6000610efa6010836110a7565b9150610f05826112e3565b602082019050919050565b610f19816110f6565b82525050565b6000610f2a82610ea7565b9150819050919050565b6000602082019050610f496000830184610dda565b92915050565b6000606082019050610f646000830186610dda565b610f716020830185610dda565b610f7e6040830184610f10565b949350505050565b6000602082019050610f9b6000830184610de9565b92915050565b60006020820190508181036000830152610fba81610df8565b9050919050565b60006020820190508181036000830152610fda81610e1b565b9050919050565b60006020820190508181036000830152610ffa81610e3e565b9050919050565b6000602082019050818103600083015261101a81610e61565b9050919050565b6000602082019050818103600083015261103a81610e84565b9050919050565b6000602082019050818103600083015261105a81610eca565b9050919050565b6000602082019050818103600083015261107a81610eed565b9050919050565b60006020820190506110966000830184610f10565b92915050565b600081905092915050565b600082825260208201905092915050565b60006110c3826110d6565b9050919050565b60008115159050919050565b600073ffffffffffffffffffffffffffffffffffffffff82169050919050565b6000819050919050565b600061110b826110f6565b91507fffffffffffffffffffffffffffffffffffffffffffffffffffffffffffffffff82141561113e5761113d611149565b5b600182019050919050565b7f4e487b7100000000000000000000000000000000000000000000000000000000600052601160045260246000fd5b7f596f7520617265206e6f7420617070726f76656420666f72207769746864726160008201527f77696e672066756e647300000000000000000000000000000000000000000000602082015250565b7f546f6b656e20616c7265616479206f776e656400000000000000000000000000600082015250565b7f4f776e61626c653a206e6577206f776e657220697320746865207a65726f206160008201527f6464726573730000000000000000000000000000000000000000000000000000602082015250565b7f5769746864726177206661696c65640000000000000000000000000000000000600082015250565b7f456e74657220636f72726563742076616c756500000000000000000000000000600082015250565b7f46756e64732066726f6d206d61726b6574706c61636500000000000000000000600082015250565b7f4f776e61626c653a2063616c6c6572206973206e6f7420746865206f776e6572600082015250565b7f496e76616c696420746f6b656e20496400000000000000000000000000000000600082015250565b611315816110b8565b811461132057600080fd5b50565b61132c816110f6565b811461133757600080fd5b5056fea26469706673582212201e848645225f6a4ab255e817db7b07f3e66113ae89b72502e7c0cd669309362664736f6c63430008010033",
  "linkReferences": {},
  "deployedLinkReferences": {}
}